{
  "_format": "hh-sol-artifact-1",
  "contractName": "YieldWhalesNFT",
  "sourceName": "contracts/YieldWhalesNFT.sol",
  "abi": [
    {
      "inputs": [],
      "stateMutability": "payable",
      "type": "constructor"
    },
    {
      "anonymous": false,
      "inputs": [
        {
          "indexed": true,
          "internalType": "address",
          "name": "owner",
          "type": "address"
        },
        {
          "indexed": true,
          "internalType": "address",
          "name": "approved",
          "type": "address"
        },
        {
          "indexed": true,
          "internalType": "uint256",
          "name": "tokenId",
          "type": "uint256"
        }
      ],
      "name": "Approval",
      "type": "event"
    },
    {
      "anonymous": false,
      "inputs": [
        {
          "indexed": true,
          "internalType": "address",
          "name": "owner",
          "type": "address"
        },
        {
          "indexed": true,
          "internalType": "address",
          "name": "operator",
          "type": "address"
        },
        {
          "indexed": false,
          "internalType": "bool",
          "name": "approved",
          "type": "bool"
        }
      ],
      "name": "ApprovalForAll",
      "type": "event"
    },
    {
      "anonymous": false,
      "inputs": [
        {
          "indexed": true,
          "internalType": "address",
          "name": "previousOwner",
          "type": "address"
        },
        {
          "indexed": true,
          "internalType": "address",
          "name": "newOwner",
          "type": "address"
        }
      ],
      "name": "OwnershipTransferred",
      "type": "event"
    },
    {
      "anonymous": false,
      "inputs": [
        {
          "indexed": true,
          "internalType": "address",
          "name": "from",
          "type": "address"
        },
        {
          "indexed": true,
          "internalType": "address",
          "name": "to",
          "type": "address"
        },
        {
          "indexed": true,
          "internalType": "uint256",
          "name": "tokenId",
          "type": "uint256"
        }
      ],
      "name": "Transfer",
      "type": "event"
    },
    {
      "inputs": [
        {
          "internalType": "address",
          "name": "to",
          "type": "address"
        },
        {
          "internalType": "uint256",
          "name": "tokenId",
          "type": "uint256"
        }
      ],
      "name": "approve",
      "outputs": [],
      "stateMutability": "nonpayable",
      "type": "function"
    },
    {
      "inputs": [
        {
          "internalType": "address",
          "name": "owner",
          "type": "address"
        }
      ],
      "name": "balanceOf",
      "outputs": [
        {
          "internalType": "uint256",
          "name": "",
          "type": "uint256"
        }
      ],
      "stateMutability": "view",
      "type": "function"
    },
    {
      "inputs": [
        {
          "internalType": "uint256",
          "name": "tokenId",
          "type": "uint256"
        }
      ],
      "name": "getApproved",
      "outputs": [
        {
          "internalType": "address",
          "name": "",
          "type": "address"
        }
      ],
      "stateMutability": "view",
      "type": "function"
    },
    {
      "inputs": [],
      "name": "getTotalSupply",
      "outputs": [
        {
          "internalType": "uint256",
          "name": "",
          "type": "uint256"
        }
      ],
      "stateMutability": "view",
      "type": "function"
    },
    {
      "inputs": [],
      "name": "getWalletMints",
      "outputs": [
        {
          "internalType": "uint256",
          "name": "",
          "type": "uint256"
        }
      ],
      "stateMutability": "view",
      "type": "function"
    },
    {
      "inputs": [
        {
          "internalType": "address",
          "name": "owner",
          "type": "address"
        },
        {
          "internalType": "address",
          "name": "operator",
          "type": "address"
        }
      ],
      "name": "isApprovedForAll",
      "outputs": [
        {
          "internalType": "bool",
          "name": "",
          "type": "bool"
        }
      ],
      "stateMutability": "view",
      "type": "function"
    },
    {
      "inputs": [],
      "name": "isPublicMintEnabled",
      "outputs": [
        {
          "internalType": "bool",
          "name": "",
          "type": "bool"
        }
      ],
      "stateMutability": "view",
      "type": "function"
    },
    {
      "inputs": [],
      "name": "maxSupply",
      "outputs": [
        {
          "internalType": "uint256",
          "name": "",
          "type": "uint256"
        }
      ],
      "stateMutability": "view",
      "type": "function"
    },
    {
      "inputs": [
        {
          "internalType": "uint256",
          "name": "quantity_",
          "type": "uint256"
        }
      ],
      "name": "mint",
      "outputs": [],
      "stateMutability": "payable",
      "type": "function"
    },
    {
      "inputs": [],
      "name": "mintPrice",
      "outputs": [
        {
          "internalType": "uint256",
          "name": "",
          "type": "uint256"
        }
      ],
      "stateMutability": "view",
      "type": "function"
    },
    {
      "inputs": [],
      "name": "mintStatus",
      "outputs": [
        {
          "internalType": "bool",
          "name": "",
          "type": "bool"
        }
      ],
      "stateMutability": "view",
      "type": "function"
    },
    {
      "inputs": [],
      "name": "name",
      "outputs": [
        {
          "internalType": "string",
          "name": "",
          "type": "string"
        }
      ],
      "stateMutability": "view",
      "type": "function"
    },
    {
      "inputs": [],
      "name": "owner",
      "outputs": [
        {
          "internalType": "address",
          "name": "",
          "type": "address"
        }
      ],
      "stateMutability": "view",
      "type": "function"
    },
    {
      "inputs": [],
      "name": "ownerMint",
      "outputs": [
        {
          "internalType": "uint256",
          "name": "",
          "type": "uint256"
        }
      ],
      "stateMutability": "view",
      "type": "function"
    },
    {
      "inputs": [
        {
          "internalType": "uint256",
          "name": "tokenId",
          "type": "uint256"
        }
      ],
      "name": "ownerOf",
      "outputs": [
        {
          "internalType": "address",
          "name": "",
          "type": "address"
        }
      ],
      "stateMutability": "view",
      "type": "function"
    },
    {
      "inputs": [],
      "name": "renounceOwnership",
      "outputs": [],
      "stateMutability": "nonpayable",
      "type": "function"
    },
    {
      "inputs": [
        {
          "internalType": "address",
          "name": "from",
          "type": "address"
        },
        {
          "internalType": "address",
          "name": "to",
          "type": "address"
        },
        {
          "internalType": "uint256",
          "name": "tokenId",
          "type": "uint256"
        }
      ],
      "name": "safeTransferFrom",
      "outputs": [],
      "stateMutability": "nonpayable",
      "type": "function"
    },
    {
      "inputs": [
        {
          "internalType": "address",
          "name": "from",
          "type": "address"
        },
        {
          "internalType": "address",
          "name": "to",
          "type": "address"
        },
        {
          "internalType": "uint256",
          "name": "tokenId",
          "type": "uint256"
        },
        {
          "internalType": "bytes",
          "name": "_data",
          "type": "bytes"
        }
      ],
      "name": "safeTransferFrom",
      "outputs": [],
      "stateMutability": "nonpayable",
      "type": "function"
    },
    {
      "inputs": [
        {
          "internalType": "address",
          "name": "operator",
          "type": "address"
        },
        {
          "internalType": "bool",
          "name": "approved",
          "type": "bool"
        }
      ],
      "name": "setApprovalForAll",
      "outputs": [],
      "stateMutability": "nonpayable",
      "type": "function"
    },
    {
      "inputs": [
        {
          "internalType": "string",
          "name": "baseTokenUri_",
          "type": "string"
        }
      ],
      "name": "setBaseTokenUri",
      "outputs": [],
      "stateMutability": "nonpayable",
      "type": "function"
    },
    {
      "inputs": [
        {
          "internalType": "bool",
          "name": "isPublicMintEnabled_",
          "type": "bool"
        }
      ],
      "name": "setIsPublicMintEnabled",
      "outputs": [],
      "stateMutability": "nonpayable",
      "type": "function"
    },
    {
      "inputs": [
        {
          "internalType": "uint256",
          "name": "maxSupply_",
          "type": "uint256"
        }
      ],
      "name": "setMaxSupply",
      "outputs": [],
      "stateMutability": "nonpayable",
      "type": "function"
    },
    {
      "inputs": [
        {
          "internalType": "bytes4",
          "name": "interfaceId",
          "type": "bytes4"
        }
      ],
      "name": "supportsInterface",
      "outputs": [
        {
          "internalType": "bool",
          "name": "",
          "type": "bool"
        }
      ],
      "stateMutability": "view",
      "type": "function"
    },
    {
      "inputs": [],
      "name": "symbol",
      "outputs": [
        {
          "internalType": "string",
          "name": "",
          "type": "string"
        }
      ],
      "stateMutability": "view",
      "type": "function"
    },
    {
      "inputs": [
        {
          "internalType": "uint256",
          "name": "tokenId_",
          "type": "uint256"
        }
      ],
      "name": "tokenURI",
      "outputs": [
        {
          "internalType": "string",
          "name": "",
          "type": "string"
        }
      ],
      "stateMutability": "view",
      "type": "function"
    },
    {
      "inputs": [],
      "name": "totalSupply",
      "outputs": [
        {
          "internalType": "uint256",
          "name": "",
          "type": "uint256"
        }
      ],
      "stateMutability": "view",
      "type": "function"
    },
    {
      "inputs": [
        {
          "internalType": "address",
          "name": "from",
          "type": "address"
        },
        {
          "internalType": "address",
          "name": "to",
          "type": "address"
        },
        {
          "internalType": "uint256",
          "name": "tokenId",
          "type": "uint256"
        }
      ],
      "name": "transferFrom",
      "outputs": [],
      "stateMutability": "nonpayable",
      "type": "function"
    },
    {
      "inputs": [
        {
          "internalType": "address",
          "name": "newOwner",
          "type": "address"
        }
      ],
      "name": "transferOwnership",
      "outputs": [],
      "stateMutability": "nonpayable",
      "type": "function"
    },
    {
      "inputs": [
        {
          "internalType": "address",
          "name": "",
          "type": "address"
        }
      ],
      "name": "walletMints",
      "outputs": [
        {
          "internalType": "uint256",
          "name": "",
          "type": "uint256"
        }
      ],
      "stateMutability": "view",
      "type": "function"
    },
    {
      "inputs": [
        {
          "internalType": "uint256",
          "name": "quantity_",
          "type": "uint256"
        }
      ],
      "name": "whitelistMint",
      "outputs": [],
      "stateMutability": "payable",
      "type": "function"
    },
    {
      "inputs": [],
      "name": "withdraw",
      "outputs": [],
      "stateMutability": "nonpayable",
      "type": "function"
    },
    {
      "inputs": [],
      "name": "withdrawWallet",
      "outputs": [
        {
          "internalType": "address payable",
          "name": "",
          "type": "address"
        }
      ],
      "stateMutability": "view",
      "type": "function"
    }
  ],
  "bytecode": "0x60806040526040518060400160405280600c81526020017f5969656c64205768616c657300000000000000000000000000000000000000008152506040518060400160405280600581526020017f59574e465400000000000000000000000000000000000000000000000000000081525081600090805190602001906200008892919062000247565b508060019080519060200190620000a192919062000247565b505050620000c4620000b86200017960201b60201c565b6200018160201b60201c565b678ac7230489e8000060078190555060006009819055506105dc600a81905550600060088190555060405180606001604052806036815260200162003ebc60369139600c90805190602001906200011d92919062000247565b5073b93d019199f57f5b38ca778e369f30f822f869e3600d60006101000a81548173ffffffffffffffffffffffffffffffffffffffff021916908373ffffffffffffffffffffffffffffffffffffffff1602179055506200035c565b600033905090565b6000600660009054906101000a900473ffffffffffffffffffffffffffffffffffffffff16905081600660006101000a81548173ffffffffffffffffffffffffffffffffffffffff021916908373ffffffffffffffffffffffffffffffffffffffff1602179055508173ffffffffffffffffffffffffffffffffffffffff168173ffffffffffffffffffffffffffffffffffffffff167f8be0079c531659141344cd1fd0a4f28419497f9722a3daafe3b4186f6b6457e060405160405180910390a35050565b8280546200025590620002f7565b90600052602060002090601f016020900481019282620002795760008555620002c5565b82601f106200029457805160ff1916838001178555620002c5565b82800160010185558215620002c5579182015b82811115620002c4578251825591602001919060010190620002a7565b5b509050620002d49190620002d8565b5090565b5b80821115620002f3576000816000905550600101620002d9565b5090565b600060028204905060018216806200031057607f821691505b602082108114156200032757620003266200032d565b5b50919050565b7f4e487b7100000000000000000000000000000000000000000000000000000000600052602260045260246000fd5b613b50806200036c6000396000f3fe6080604052600436106101e35760003560e01c806385d178f411610102578063b12dc99111610095578063d5abeb0111610064578063d5abeb01146106a0578063e985e9c5146106cb578063f0293fd314610708578063f2fde38b14610745576101e3565b8063b12dc991146105e4578063b88d4fde1461060f578063c4e41b2214610638578063c87b56dd14610663576101e3565b806395d89b41116100d157806395d89b41146105495780639da3f8fd14610574578063a0712d681461059f578063a22cb465146105bb576101e3565b806385d178f4146104ae578063868ff4a2146104d95780638da5cb5b146104f557806395652cfa14610520576101e3565b806323b872dd1161017a5780636817c76c116101495780636817c76c146104065780636f8b44b01461043157806370a082311461045a578063715018a614610497576101e3565b806323b872dd146103605780633ccfd60b1461038957806342842e0e146103a05780636352211e146103c9576101e3565b8063095ea7b3116101b6578063095ea7b3146102b857806311e93af6146102e157806318160ddd1461030c5780632373ac2214610337576101e3565b80630116bc2d146101e857806301ffc9a71461021357806306fdde0314610250578063081812fc1461027b575b600080fd5b3480156101f457600080fd5b506101fd61076e565b60405161020a9190612e5b565b60405180910390f35b34801561021f57600080fd5b5061023a60048036038101906102359190612852565b610781565b6040516102479190612e5b565b60405180910390f35b34801561025c57600080fd5b50610265610863565b6040516102729190612e76565b60405180910390f35b34801561028757600080fd5b506102a2600480360381019061029d91906128e9565b6108f5565b6040516102af9190612dd9565b60405180910390f35b3480156102c457600080fd5b506102df60048036038101906102da91906127ed565b61097a565b005b3480156102ed57600080fd5b506102f6610a92565b6040516103039190613138565b60405180910390f35b34801561031857600080fd5b50610321610ade565b60405161032e9190613138565b60405180910390f35b34801561034357600080fd5b5061035e60048036038101906103599190612829565b610ae4565b005b34801561036c57600080fd5b50610387600480360381019061038291906126e7565b610b7d565b005b34801561039557600080fd5b5061039e610bdd565b005b3480156103ac57600080fd5b506103c760048036038101906103c291906126e7565b610d2a565b005b3480156103d557600080fd5b506103f060048036038101906103eb91906128e9565b610d4a565b6040516103fd9190612dd9565b60405180910390f35b34801561041257600080fd5b5061041b610dfc565b6040516104289190613138565b60405180910390f35b34801561043d57600080fd5b50610458600480360381019061045391906128e9565b610e02565b005b34801561046657600080fd5b50610481600480360381019061047c9190612682565b610e88565b60405161048e9190613138565b60405180910390f35b3480156104a357600080fd5b506104ac610f40565b005b3480156104ba57600080fd5b506104c3610fc8565b6040516104d09190612df4565b60405180910390f35b6104f360048036038101906104ee91906128e9565b610fee565b005b34801561050157600080fd5b5061050a6111a7565b6040516105179190612dd9565b60405180910390f35b34801561052c57600080fd5b50610547600480360381019061054291906128a4565b6111d1565b005b34801561055557600080fd5b5061055e611263565b60405161056b9190612e76565b60405180910390f35b34801561058057600080fd5b506105896112f5565b6040516105969190612e5b565b60405180910390f35b6105b960048036038101906105b491906128e9565b611311565b005b3480156105c757600080fd5b506105e260048036038101906105dd91906127b1565b6114e7565b005b3480156105f057600080fd5b506105f96114fd565b6040516106069190613138565b60405180910390f35b34801561061b57600080fd5b5061063660048036038101906106319190612736565b611503565b005b34801561064457600080fd5b5061064d611565565b60405161065a9190613138565b60405180910390f35b34801561066f57600080fd5b5061068a600480360381019061068591906128e9565b61156f565b6040516106979190612e76565b60405180910390f35b3480156106ac57600080fd5b506106b56115eb565b6040516106c29190613138565b60405180910390f35b3480156106d757600080fd5b506106f260048036038101906106ed91906126ab565b6115f1565b6040516106ff9190612e5b565b60405180910390f35b34801561071457600080fd5b5061072f600480360381019061072a9190612682565b611685565b60405161073c9190613138565b60405180910390f35b34801561075157600080fd5b5061076c60048036038101906107679190612682565b61169d565b005b600b60009054906101000a900460ff1681565b60007f80ac58cd000000000000000000000000000000000000000000000000000000007bffffffffffffffffffffffffffffffffffffffffffffffffffffffff1916827bffffffffffffffffffffffffffffffffffffffffffffffffffffffff1916148061084c57507f5b5e139f000000000000000000000000000000000000000000000000000000007bffffffffffffffffffffffffffffffffffffffffffffffffffffffff1916827bffffffffffffffffffffffffffffffffffffffffffffffffffffffff1916145b8061085c575061085b82611795565b5b9050919050565b606060008054610872906133e9565b80601f016020809104026020016040519081016040528092919081815260200182805461089e906133e9565b80156108eb5780601f106108c0576101008083540402835291602001916108eb565b820191906000526020600020905b8154815290600101906020018083116108ce57829003601f168201915b5050505050905090565b6000610900826117ff565b61093f576040517f08c379a000000000000000000000000000000000000000000000000000000000815260040161093690613018565b60405180910390fd5b6004600083815260200190815260200160002060009054906101000a900473ffffffffffffffffffffffffffffffffffffffff169050919050565b600061098582610d4a565b90508073ffffffffffffffffffffffffffffffffffffffff168373ffffffffffffffffffffffffffffffffffffffff1614156109f6576040517f08c379a00000000000000000000000000000000000000000000000000000000081526004016109ed90613058565b60405180910390fd5b8073ffffffffffffffffffffffffffffffffffffffff16610a1561186b565b73ffffffffffffffffffffffffffffffffffffffff161480610a445750610a4381610a3e61186b565b6115f1565b5b610a83576040517f08c379a0000000000000000000000000000000000000000000000000000000008152600401610a7a90612f98565b60405180910390fd5b610a8d8383611873565b505050565b600080600e60003373ffffffffffffffffffffffffffffffffffffffff1673ffffffffffffffffffffffffffffffffffffffff1681526020019081526020016000205490508091505090565b60095481565b610aec61186b565b73ffffffffffffffffffffffffffffffffffffffff16610b0a6111a7565b73ffffffffffffffffffffffffffffffffffffffff1614610b60576040517f08c379a0000000000000000000000000000000000000000000000000000000008152600401610b5790613038565b60405180910390fd5b80600b60006101000a81548160ff02191690831515021790555050565b610b8e610b8861186b565b8261192c565b610bcd576040517f08c379a0000000000000000000000000000000000000000000000000000000008152600401610bc490613098565b60405180910390fd5b610bd8838383611a0a565b505050565b610be561186b565b73ffffffffffffffffffffffffffffffffffffffff16610c036111a7565b73ffffffffffffffffffffffffffffffffffffffff1614610c59576040517f08c379a0000000000000000000000000000000000000000000000000000000008152600401610c5090613038565b60405180910390fd5b6000600d60009054906101000a900473ffffffffffffffffffffffffffffffffffffffff1673ffffffffffffffffffffffffffffffffffffffff1647604051610ca190612dc4565b60006040518083038185875af1925050503d8060008114610cde576040519150601f19603f3d011682016040523d82523d6000602084013e610ce3565b606091505b5050905080610d27576040517f08c379a0000000000000000000000000000000000000000000000000000000008152600401610d1e90613118565b60405180910390fd5b50565b610d4583838360405180602001604052806000815250611503565b505050565b6000806002600084815260200190815260200160002060009054906101000a900473ffffffffffffffffffffffffffffffffffffffff169050600073ffffffffffffffffffffffffffffffffffffffff168173ffffffffffffffffffffffffffffffffffffffff161415610df3576040517f08c379a0000000000000000000000000000000000000000000000000000000008152600401610dea90612fd8565b60405180910390fd5b80915050919050565b60075481565b610e0a61186b565b73ffffffffffffffffffffffffffffffffffffffff16610e286111a7565b73ffffffffffffffffffffffffffffffffffffffff1614610e7e576040517f08c379a0000000000000000000000000000000000000000000000000000000008152600401610e7590613038565b60405180910390fd5b80600a8190555050565b60008073ffffffffffffffffffffffffffffffffffffffff168273ffffffffffffffffffffffffffffffffffffffff161415610ef9576040517f08c379a0000000000000000000000000000000000000000000000000000000008152600401610ef090612fb8565b60405180910390fd5b600360008373ffffffffffffffffffffffffffffffffffffffff1673ffffffffffffffffffffffffffffffffffffffff168152602001908152602001600020549050919050565b610f4861186b565b73ffffffffffffffffffffffffffffffffffffffff16610f666111a7565b73ffffffffffffffffffffffffffffffffffffffff1614610fbc576040517f08c379a0000000000000000000000000000000000000000000000000000000008152600401610fb390613038565b60405180910390fd5b610fc66000611c71565b565b600d60009054906101000a900473ffffffffffffffffffffffffffffffffffffffff1681565b610ff661186b565b73ffffffffffffffffffffffffffffffffffffffff166110146111a7565b73ffffffffffffffffffffffffffffffffffffffff161461106a576040517f08c379a000000000000000000000000000000000000000000000000000000000815260040161106190613038565b60405180910390fd5b600b60009054906101000a900460ff166110b9576040517f08c379a00000000000000000000000000000000000000000000000000000000081526004016110b0906130d8565b60405180910390fd5b60085434146110fd576040517f08c379a00000000000000000000000000000000000000000000000000000000081526004016110f490612f18565b60405180910390fd5b600a548160095461110e919061320c565b111561114f576040517f08c379a0000000000000000000000000000000000000000000000000000000008152600401611146906130b8565b60405180910390fd5b60005b818110156111a3576000600160095461116b919061320c565b9050600960008154809291906111809061344c565b919050555061118f3382611d37565b50808061119b9061344c565b915050611152565b5050565b6000600660009054906101000a900473ffffffffffffffffffffffffffffffffffffffff16905090565b6111d961186b565b73ffffffffffffffffffffffffffffffffffffffff166111f76111a7565b73ffffffffffffffffffffffffffffffffffffffff161461124d576040517f08c379a000000000000000000000000000000000000000000000000000000000815260040161124490613038565b60405180910390fd5b8181600c919061125e9291906124c4565b505050565b606060018054611272906133e9565b80601f016020809104026020016040519081016040528092919081815260200182805461129e906133e9565b80156112eb5780601f106112c0576101008083540402835291602001916112eb565b820191906000526020600020905b8154815290600101906020018083116112ce57829003601f168201915b5050505050905090565b600080600b60009054906101000a900460ff1690508091505090565b600b60009054906101000a900460ff16611360576040517f08c379a000000000000000000000000000000000000000000000000000000000815260040161135790613078565b60405180910390fd5b6007548161136e9190613293565b34146113af576040517f08c379a00000000000000000000000000000000000000000000000000000000081526004016113a690612f18565b60405180910390fd5b600a54816009546113c0919061320c565b1115611401576040517f08c379a00000000000000000000000000000000000000000000000000000000081526004016113f8906130b8565b60405180910390fd5b60005b81811015611455576000600160095461141d919061320c565b9050600960008154809291906114329061344c565b91905055506114413382611d37565b50808061144d9061344c565b915050611404565b5080600e60003373ffffffffffffffffffffffffffffffffffffffff1673ffffffffffffffffffffffffffffffffffffffff168152602001908152602001600020546114a1919061320c565b600e60003373ffffffffffffffffffffffffffffffffffffffff1673ffffffffffffffffffffffffffffffffffffffff1681526020019081526020016000208190555050565b6114f96114f261186b565b8383611d55565b5050565b60085481565b61151461150e61186b565b8361192c565b611553576040517f08c379a000000000000000000000000000000000000000000000000000000000815260040161154a90613098565b60405180910390fd5b61155f84848484611ec2565b50505050565b6000600954905090565b606061157a826117ff565b6115b9576040517f08c379a00000000000000000000000000000000000000000000000000000000081526004016115b0906130f8565b60405180910390fd5b600c6115c483611f1e565b6040516020016115d5929190612d95565b6040516020818303038152906040529050919050565b600a5481565b6000600560008473ffffffffffffffffffffffffffffffffffffffff1673ffffffffffffffffffffffffffffffffffffffff16815260200190815260200160002060008373ffffffffffffffffffffffffffffffffffffffff1673ffffffffffffffffffffffffffffffffffffffff16815260200190815260200160002060009054906101000a900460ff16905092915050565b600e6020528060005260406000206000915090505481565b6116a561186b565b73ffffffffffffffffffffffffffffffffffffffff166116c36111a7565b73ffffffffffffffffffffffffffffffffffffffff1614611719576040517f08c379a000000000000000000000000000000000000000000000000000000000815260040161171090613038565b60405180910390fd5b600073ffffffffffffffffffffffffffffffffffffffff168173ffffffffffffffffffffffffffffffffffffffff161415611789576040517f08c379a000000000000000000000000000000000000000000000000000000000815260040161178090612eb8565b60405180910390fd5b61179281611c71565b50565b60007f01ffc9a7000000000000000000000000000000000000000000000000000000007bffffffffffffffffffffffffffffffffffffffffffffffffffffffff1916827bffffffffffffffffffffffffffffffffffffffffffffffffffffffff1916149050919050565b60008073ffffffffffffffffffffffffffffffffffffffff166002600084815260200190815260200160002060009054906101000a900473ffffffffffffffffffffffffffffffffffffffff1673ffffffffffffffffffffffffffffffffffffffff1614159050919050565b600033905090565b816004600083815260200190815260200160002060006101000a81548173ffffffffffffffffffffffffffffffffffffffff021916908373ffffffffffffffffffffffffffffffffffffffff160217905550808273ffffffffffffffffffffffffffffffffffffffff166118e683610d4a565b73ffffffffffffffffffffffffffffffffffffffff167f8c5be1e5ebec7d5bd14f71427d1e84f3dd0314c0f7b2291e5b200ac8c7c3b92560405160405180910390a45050565b6000611937826117ff565b611976576040517f08c379a000000000000000000000000000000000000000000000000000000000815260040161196d90612f78565b60405180910390fd5b600061198183610d4a565b90508073ffffffffffffffffffffffffffffffffffffffff168473ffffffffffffffffffffffffffffffffffffffff1614806119c357506119c281856115f1565b5b80611a0157508373ffffffffffffffffffffffffffffffffffffffff166119e9846108f5565b73ffffffffffffffffffffffffffffffffffffffff16145b91505092915050565b8273ffffffffffffffffffffffffffffffffffffffff16611a2a82610d4a565b73ffffffffffffffffffffffffffffffffffffffff1614611a80576040517f08c379a0000000000000000000000000000000000000000000000000000000008152600401611a7790612ed8565b60405180910390fd5b600073ffffffffffffffffffffffffffffffffffffffff168273ffffffffffffffffffffffffffffffffffffffff161415611af0576040517f08c379a0000000000000000000000000000000000000000000000000000000008152600401611ae790612f38565b60405180910390fd5b611afb8383836120cb565b611b06600082611873565b6001600360008573ffffffffffffffffffffffffffffffffffffffff1673ffffffffffffffffffffffffffffffffffffffff1681526020019081526020016000206000828254611b5691906132ed565b925050819055506001600360008473ffffffffffffffffffffffffffffffffffffffff1673ffffffffffffffffffffffffffffffffffffffff1681526020019081526020016000206000828254611bad919061320c565b92505081905550816002600083815260200190815260200160002060006101000a81548173ffffffffffffffffffffffffffffffffffffffff021916908373ffffffffffffffffffffffffffffffffffffffff160217905550808273ffffffffffffffffffffffffffffffffffffffff168473ffffffffffffffffffffffffffffffffffffffff167fddf252ad1be2c89b69c2b068fc378daa952ba7f163c4a11628f55a4df523b3ef60405160405180910390a4611c6c8383836120d0565b505050565b6000600660009054906101000a900473ffffffffffffffffffffffffffffffffffffffff16905081600660006101000a81548173ffffffffffffffffffffffffffffffffffffffff021916908373ffffffffffffffffffffffffffffffffffffffff1602179055508173ffffffffffffffffffffffffffffffffffffffff168173ffffffffffffffffffffffffffffffffffffffff167f8be0079c531659141344cd1fd0a4f28419497f9722a3daafe3b4186f6b6457e060405160405180910390a35050565b611d518282604051806020016040528060008152506120d5565b5050565b8173ffffffffffffffffffffffffffffffffffffffff168373ffffffffffffffffffffffffffffffffffffffff161415611dc4576040517f08c379a0000000000000000000000000000000000000000000000000000000008152600401611dbb90612f58565b60405180910390fd5b80600560008573ffffffffffffffffffffffffffffffffffffffff1673ffffffffffffffffffffffffffffffffffffffff16815260200190815260200160002060008473ffffffffffffffffffffffffffffffffffffffff1673ffffffffffffffffffffffffffffffffffffffff16815260200190815260200160002060006101000a81548160ff0219169083151502179055508173ffffffffffffffffffffffffffffffffffffffff168373ffffffffffffffffffffffffffffffffffffffff167f17307eab39ab6107e8899845ad3d59bd9653f200f220920489ca2b5937696c3183604051611eb59190612e5b565b60405180910390a3505050565b611ecd848484611a0a565b611ed984848484612130565b611f18576040517f08c379a0000000000000000000000000000000000000000000000000000000008152600401611f0f90612e98565b60405180910390fd5b50505050565b60606000821415611f66576040518060400160405280600181526020017f300000000000000000000000000000000000000000000000000000000000000081525090506120c6565b600082905060005b60008214611f98578080611f819061344c565b915050600a82611f919190613262565b9150611f6e565b60008167ffffffffffffffff811115611fda577f4e487b7100000000000000000000000000000000000000000000000000000000600052604160045260246000fd5b6040519080825280601f01601f19166020018201604052801561200c5781602001600182028036833780820191505090505b5090505b600085146120bf5760018261202591906132ed565b9150600a856120349190613495565b6030612040919061320c565b60f81b81838151811061207c577f4e487b7100000000000000000000000000000000000000000000000000000000600052603260045260246000fd5b60200101907effffffffffffffffffffffffffffffffffffffffffffffffffffffffffffff1916908160001a905350600a856120b89190613262565b9450612010565b8093505050505b919050565b505050565b505050565b6120df83836122c7565b6120ec6000848484612130565b61212b576040517f08c379a000000000000000000000000000000000000000000000000000000000815260040161212290612e98565b60405180910390fd5b505050565b60006121518473ffffffffffffffffffffffffffffffffffffffff166124a1565b156122ba578373ffffffffffffffffffffffffffffffffffffffff1663150b7a0261217a61186b565b8786866040518563ffffffff1660e01b815260040161219c9493929190612e0f565b602060405180830381600087803b1580156121b657600080fd5b505af19250505080156121e757506040513d601f19601f820116820180604052508101906121e4919061287b565b60015b61226a573d8060008114612217576040519150601f19603f3d011682016040523d82523d6000602084013e61221c565b606091505b50600081511415612262576040517f08c379a000000000000000000000000000000000000000000000000000000000815260040161225990612e98565b60405180910390fd5b805181602001fd5b63150b7a0260e01b7bffffffffffffffffffffffffffffffffffffffffffffffffffffffff1916817bffffffffffffffffffffffffffffffffffffffffffffffffffffffff1916149150506122bf565b600190505b949350505050565b600073ffffffffffffffffffffffffffffffffffffffff168273ffffffffffffffffffffffffffffffffffffffff161415612337576040517f08c379a000000000000000000000000000000000000000000000000000000000815260040161232e90612ff8565b60405180910390fd5b612340816117ff565b15612380576040517f08c379a000000000000000000000000000000000000000000000000000000000815260040161237790612ef8565b60405180910390fd5b61238c600083836120cb565b6001600360008473ffffffffffffffffffffffffffffffffffffffff1673ffffffffffffffffffffffffffffffffffffffff16815260200190815260200160002060008282546123dc919061320c565b92505081905550816002600083815260200190815260200160002060006101000a81548173ffffffffffffffffffffffffffffffffffffffff021916908373ffffffffffffffffffffffffffffffffffffffff160217905550808273ffffffffffffffffffffffffffffffffffffffff16600073ffffffffffffffffffffffffffffffffffffffff167fddf252ad1be2c89b69c2b068fc378daa952ba7f163c4a11628f55a4df523b3ef60405160405180910390a461249d600083836120d0565b5050565b6000808273ffffffffffffffffffffffffffffffffffffffff163b119050919050565b8280546124d0906133e9565b90600052602060002090601f0160209004810192826124f25760008555612539565b82601f1061250b57803560ff1916838001178555612539565b82800160010185558215612539579182015b8281111561253857823582559160200191906001019061251d565b5b509050612546919061254a565b5090565b5b8082111561256357600081600090555060010161254b565b5090565b600061257a61257584613178565b613153565b90508281526020810184848401111561259257600080fd5b61259d8482856133a7565b509392505050565b6000813590506125b481613abe565b92915050565b6000813590506125c981613ad5565b92915050565b6000813590506125de81613aec565b92915050565b6000815190506125f381613aec565b92915050565b600082601f83011261260a57600080fd5b813561261a848260208601612567565b91505092915050565b60008083601f84011261263557600080fd5b8235905067ffffffffffffffff81111561264e57600080fd5b60208301915083600182028301111561266657600080fd5b9250929050565b60008135905061267c81613b03565b92915050565b60006020828403121561269457600080fd5b60006126a2848285016125a5565b91505092915050565b600080604083850312156126be57600080fd5b60006126cc858286016125a5565b92505060206126dd858286016125a5565b9150509250929050565b6000806000606084860312156126fc57600080fd5b600061270a868287016125a5565b935050602061271b868287016125a5565b925050604061272c8682870161266d565b9150509250925092565b6000806000806080858703121561274c57600080fd5b600061275a878288016125a5565b945050602061276b878288016125a5565b935050604061277c8782880161266d565b925050606085013567ffffffffffffffff81111561279957600080fd5b6127a5878288016125f9565b91505092959194509250565b600080604083850312156127c457600080fd5b60006127d2858286016125a5565b92505060206127e3858286016125ba565b9150509250929050565b6000806040838503121561280057600080fd5b600061280e858286016125a5565b925050602061281f8582860161266d565b9150509250929050565b60006020828403121561283b57600080fd5b6000612849848285016125ba565b91505092915050565b60006020828403121561286457600080fd5b6000612872848285016125cf565b91505092915050565b60006020828403121561288d57600080fd5b600061289b848285016125e4565b91505092915050565b600080602083850312156128b757600080fd5b600083013567ffffffffffffffff8111156128d157600080fd5b6128dd85828601612623565b92509250509250929050565b6000602082840312156128fb57600080fd5b60006129098482850161266d565b91505092915050565b61291b81613333565b82525050565b61292a81613321565b82525050565b61293981613345565b82525050565b600061294a826131be565b61295481856131d4565b93506129648185602086016133b6565b61296d81613582565b840191505092915050565b6000612983826131c9565b61298d81856131f0565b935061299d8185602086016133b6565b6129a681613582565b840191505092915050565b60006129bc826131c9565b6129c68185613201565b93506129d68185602086016133b6565b80840191505092915050565b600081546129ef816133e9565b6129f98186613201565b94506001821660008114612a145760018114612a2557612a58565b60ff19831686528186019350612a58565b612a2e856131a9565b60005b83811015612a5057815481890152600182019150602081019050612a31565b838801955050505b50505092915050565b6000612a6e6032836131f0565b9150612a7982613593565b604082019050919050565b6000612a916026836131f0565b9150612a9c826135e2565b604082019050919050565b6000612ab46025836131f0565b9150612abf82613631565b604082019050919050565b6000612ad7601c836131f0565b9150612ae282613680565b602082019050919050565b6000612afa6011836131f0565b9150612b05826136a9565b602082019050919050565b6000612b1d6024836131f0565b9150612b28826136d2565b604082019050919050565b6000612b406019836131f0565b9150612b4b82613721565b602082019050919050565b6000612b63602c836131f0565b9150612b6e8261374a565b604082019050919050565b6000612b866038836131f0565b9150612b9182613799565b604082019050919050565b6000612ba9602a836131f0565b9150612bb4826137e8565b604082019050919050565b6000612bcc6029836131f0565b9150612bd782613837565b604082019050919050565b6000612bef6020836131f0565b9150612bfa82613886565b602082019050919050565b6000612c12602c836131f0565b9150612c1d826138af565b604082019050919050565b6000612c35600583613201565b9150612c40826138fe565b600582019050919050565b6000612c586020836131f0565b9150612c6382613927565b602082019050919050565b6000612c7b6021836131f0565b9150612c8682613950565b604082019050919050565b6000612c9e6000836131e5565b9150612ca98261399f565b600082019050919050565b6000612cc16014836131f0565b9150612ccc826139a2565b602082019050919050565b6000612ce46031836131f0565b9150612cef826139cb565b604082019050919050565b6000612d076009836131f0565b9150612d1282613a1a565b602082019050919050565b6000612d2a6014836131f0565b9150612d3582613a43565b602082019050919050565b6000612d4d6015836131f0565b9150612d5882613a6c565b602082019050919050565b6000612d70600f836131f0565b9150612d7b82613a95565b602082019050919050565b612d8f8161339d565b82525050565b6000612da182856129e2565b9150612dad82846129b1565b9150612db882612c28565b91508190509392505050565b6000612dcf82612c91565b9150819050919050565b6000602082019050612dee6000830184612921565b92915050565b6000602082019050612e096000830184612912565b92915050565b6000608082019050612e246000830187612921565b612e316020830186612921565b612e3e6040830185612d86565b8181036060830152612e50818461293f565b905095945050505050565b6000602082019050612e706000830184612930565b92915050565b60006020820190508181036000830152612e908184612978565b905092915050565b60006020820190508181036000830152612eb181612a61565b9050919050565b60006020820190508181036000830152612ed181612a84565b9050919050565b60006020820190508181036000830152612ef181612aa7565b9050919050565b60006020820190508181036000830152612f1181612aca565b9050919050565b60006020820190508181036000830152612f3181612aed565b9050919050565b60006020820190508181036000830152612f5181612b10565b9050919050565b60006020820190508181036000830152612f7181612b33565b9050919050565b60006020820190508181036000830152612f9181612b56565b9050919050565b60006020820190508181036000830152612fb181612b79565b9050919050565b60006020820190508181036000830152612fd181612b9c565b9050919050565b60006020820190508181036000830152612ff181612bbf565b9050919050565b6000602082019050818103600083015261301181612be2565b9050919050565b6000602082019050818103600083015261303181612c05565b9050919050565b6000602082019050818103600083015261305181612c4b565b9050919050565b6000602082019050818103600083015261307181612c6e565b9050919050565b6000602082019050818103600083015261309181612cb4565b9050919050565b600060208201905081810360008301526130b181612cd7565b9050919050565b600060208201905081810360008301526130d181612cfa565b9050919050565b600060208201905081810360008301526130f181612d1d565b9050919050565b6000602082019050818103600083015261311181612d40565b9050919050565b6000602082019050818103600083015261313181612d63565b9050919050565b600060208201905061314d6000830184612d86565b92915050565b600061315d61316e565b9050613169828261341b565b919050565b6000604051905090565b600067ffffffffffffffff82111561319357613192613553565b5b61319c82613582565b9050602081019050919050565b60008190508160005260206000209050919050565b600081519050919050565b600081519050919050565b600082825260208201905092915050565b600081905092915050565b600082825260208201905092915050565b600081905092915050565b60006132178261339d565b91506132228361339d565b9250827fffffffffffffffffffffffffffffffffffffffffffffffffffffffffffffffff03821115613257576132566134c6565b5b828201905092915050565b600061326d8261339d565b91506132788361339d565b925082613288576132876134f5565b5b828204905092915050565b600061329e8261339d565b91506132a98361339d565b9250817fffffffffffffffffffffffffffffffffffffffffffffffffffffffffffffffff04831182151516156132e2576132e16134c6565b5b828202905092915050565b60006132f88261339d565b91506133038361339d565b925082821015613316576133156134c6565b5b828203905092915050565b600061332c8261337d565b9050919050565b600061333e8261337d565b9050919050565b60008115159050919050565b60007fffffffff0000000000000000000000000000000000000000000000000000000082169050919050565b600073ffffffffffffffffffffffffffffffffffffffff82169050919050565b6000819050919050565b82818337600083830152505050565b60005b838110156133d45780820151818401526020810190506133b9565b838111156133e3576000848401525b50505050565b6000600282049050600182168061340157607f821691505b6020821081141561341557613414613524565b5b50919050565b61342482613582565b810181811067ffffffffffffffff8211171561344357613442613553565b5b80604052505050565b60006134578261339d565b91507fffffffffffffffffffffffffffffffffffffffffffffffffffffffffffffffff82141561348a576134896134c6565b5b600182019050919050565b60006134a08261339d565b91506134ab8361339d565b9250826134bb576134ba6134f5565b5b828206905092915050565b7f4e487b7100000000000000000000000000000000000000000000000000000000600052601160045260246000fd5b7f4e487b7100000000000000000000000000000000000000000000000000000000600052601260045260246000fd5b7f4e487b7100000000000000000000000000000000000000000000000000000000600052602260045260246000fd5b7f4e487b7100000000000000000000000000000000000000000000000000000000600052604160045260246000fd5b6000601f19601f8301169050919050565b7f4552433732313a207472616e7366657220746f206e6f6e20455243373231526560008201527f63656976657220696d706c656d656e7465720000000000000000000000000000602082015250565b7f4f776e61626c653a206e6577206f776e657220697320746865207a65726f206160008201527f6464726573730000000000000000000000000000000000000000000000000000602082015250565b7f4552433732313a207472616e736665722066726f6d20696e636f72726563742060008201527f6f776e6572000000000000000000000000000000000000000000000000000000602082015250565b7f4552433732313a20746f6b656e20616c7265616479206d696e74656400000000600082015250565b7f57726f6e67206d696e742076616c75652e000000000000000000000000000000600082015250565b7f4552433732313a207472616e7366657220746f20746865207a65726f2061646460008201527f7265737300000000000000000000000000000000000000000000000000000000602082015250565b7f4552433732313a20617070726f766520746f2063616c6c657200000000000000600082015250565b7f4552433732313a206f70657261746f7220717565727920666f72206e6f6e657860008201527f697374656e7420746f6b656e0000000000000000000000000000000000000000602082015250565b7f4552433732313a20617070726f76652063616c6c6572206973206e6f74206f7760008201527f6e6572206e6f7220617070726f76656420666f7220616c6c0000000000000000602082015250565b7f4552433732313a2062616c616e636520717565727920666f7220746865207a6560008201527f726f206164647265737300000000000000000000000000000000000000000000602082015250565b7f4552433732313a206f776e657220717565727920666f72206e6f6e657869737460008201527f656e7420746f6b656e0000000000000000000000000000000000000000000000602082015250565b7f4552433732313a206d696e7420746f20746865207a65726f2061646472657373600082015250565b7f4552433732313a20617070726f76656420717565727920666f72206e6f6e657860008201527f697374656e7420746f6b656e0000000000000000000000000000000000000000602082015250565b7f2e6a736f6e000000000000000000000000000000000000000000000000000000600082015250565b7f4f776e61626c653a2063616c6c6572206973206e6f7420746865206f776e6572600082015250565b7f4552433732313a20617070726f76616c20746f2063757272656e74206f776e6560008201527f7200000000000000000000000000000000000000000000000000000000000000602082015250565b50565b7f4d696e74696e67206e6f7420656e61626c65642e000000000000000000000000600082015250565b7f4552433732313a207472616e736665722063616c6c6572206973206e6f74206f60008201527f776e6572206e6f7220617070726f766564000000000000000000000000000000602082015250565b7f536f6c64206f75742e0000000000000000000000000000000000000000000000600082015250565b7f4d696e74696e6720697320696e6163746976652e000000000000000000000000600082015250565b7f546f6b656e20646f6573206e6f74206578697374210000000000000000000000600082015250565b7f7769746864726177206661696c65640000000000000000000000000000000000600082015250565b613ac781613321565b8114613ad257600080fd5b50565b613ade81613345565b8114613ae957600080fd5b50565b613af581613351565b8114613b0057600080fd5b50565b613b0c8161339d565b8114613b1757600080fd5b5056fea264697066735822122085c3d16d5dcd353feb4bfd359d04cd3b9729fa368aaa24f9bfba818fceec5d7f64736f6c63430008040033697066733a2f2f516d63337051326470325665716737415556766a367845796f70364d4e624c7132415367354355627079475844442f",
  "linkReferences": {},
  "deployedLinkReferences": {}
}